S00F00004D696E6946616E2E7372656373
S113000045C0000061C000005FC000005DC000008A
S11300105BC0000059C0000057C0000055C000007C
S113002053C000007BC000004FC000004DC0000062
S11300304BC0000049C0000047C0000045C000009C
S113004044C0000041C0000092C000003DC0000058
S11300503BC0000039C0000037C0000035C00000BC
S113006033C0000031C000002FC000002DC00000CC
S11300702BC0000029C0000027C0000025C00000DC
S113008023C0000021C000001FC0000011241FBEB7
S1130090CFEFD0E1DEBFCDBF11E0A0E0B1E0E0EEF4
S11300A0F8E100E00BBF02C007900D92A03DB1073C
S11300B0D9F722E0A0EDB1E001C01D92AB36B20742
S11300C0E1F7E6D70C946E0C9BCF1F920F920FB6FC
S11300D00F9211240BB60F922F933F934F935F937C
S11300E06F937F938F939F93AF93BF93EF93FF93FC
S11300F0F5D682E882BFFF91EF91BF91AF919F91B6
S11301008F917F916F915F914F913F912F910F90BC
S11301100BBE0F900FBE0F901F9018951F920F9259
S11301200FB60F9211240BB60F922F933F934F9358
S11301305F936F937F938F939F93AF93BF93EF934B
S1130140FF933BD2811162D4FF91EF91BF91AF91A4
S11301509F918F917F916F915F914F913F912F91DB
S11301600F900BBE0F900FBE0F901F9018951F920B
S11301700F920FB60F9211240BB60F922F933F9349
S11301804F935F936F937F938F939F93AF93BF939B
S1130190EF93FF93F7D7FF91EF91BF91AF919F91A9
S11301A08F917F916F915F914F913F912F910F901C
S11301B00BBE0F900FBE0F901F90189522D080E0B9
S11301C0F3D180E003D280E0F5D180E0F9D10DD104
S11301D0AED2D9D3FED132D7A9D7B1D7BCD7789470
S11301E080E091E0909368028093670208955AD06A
S11301F029D071D0A1D089D34DD4A5D25AD43CC72B
S1130200089520E049E350E06AE370E085EE91E070
S1130210BDD421E049E350E06AE370E081EF91E06E
S1130220B5D422E049E350E06AE370E08BEE91E05C
S1130230ADD423E049E350E06AE370E08FED91E050
S1130240A5C40895AED181112CC0BDD1813079F0FF
S113025028F08230A9F08330E1F0089581EF91E035
S1130260A2D48130F1F42DD181E0B0C1089581EFA1
S113027091E099D48130A9F424D182E0A7C10895F2
S113028081EF91E090D4813061F41BD183E09EC171
S1130290089581EF91E087D4813019F412D180E080
S11302A095C108957ED1882319F0813059F00895BD
S11302B0C9DF85EE91E077D4813061F49CD081E090
S11302C073C1089585EE91E06ED4813019F4C6D0DF
S11302D080E06AC108956BD1813081F028F08230CA
S11302E0B9F08330F9F008958BEE91E05CD481305D
S11302F011F5FAD081E05ED151C308958BEE91E0FF
S113030052D48130C1F4F0D082E054D147C308956F
S11303108BEE91E048D4813071F4E6D083E04AD189
S11303203DC308958BEE91E03ED4813021F4DCD0BE
S113033080E040D133C3089540D1882319F081303F
S113034051F008958FED91E02ED4813061F4DBD02B
S113035081E036C108958FED91E025D4813019F400
S1130360C3D080E02DC10895CF93DF9369D486E193
S113037094E042D42FEF81EE94E0215080409040ED
S1130380E1F700C00000C8E8D0E01982188286E2D4
S113039095E032D42FEF81EE94E0215080409040DC
S11303A0E1F700C00000198218828FE196E024D49E
S11303B02FEF81EE94E0215080409040E1F700C09F
S11303C000001982188286E194E016D42FEF81EEA2
S11303D094E0215080409040E1F700C00000198271
S11303E0188234D4DF91CF91089536D482B18061DC
S11303F082B9BACF0895CF93DF9322D48FE196E0E8
S1130400FBD32FEF81EE94E0215080409040E1F740
S113041000C00000C8E8D0E01982188286E194E0A8
S1130420EBD32FEF81EE94E0215080409040E1F730
S113043000C00000198218828FE196E0DDD32FEF0F
S113044081EE94E0215080409040E1F700C000002C
S113045019821882FBD3DF91CF910895CF93DF9354
S1130460EFD386E194E0C8D32FEF81EE94E02150DE
S113047080409040E1F700C00000C8E8D0E0198255
S113048018828FE196E0B8D32FEF81EE94E02150EB
S113049080409040E1F700C000001982188286E194
S11304A094E0AAD32FEF81EE94E021508040904055
S11304B0E1F700C0000019821882C8D3DF91CF9100
S11304C00895BED386E194E097D32FEF81EE94E0B4
S11304D0215080409040E1F700C000001092890054
S11304E010928800B3C30895ABD386E994E084D313
S11304F02FEF81EE94E0215080409040E1F700C05E
S11305000000A4C308959CD386E194E075D32FEF33
S113051081EE94E0215080409040E1F700C000005B
S113052086E994E069D32FEF81EE94E02150804076
S11305309040E1F700C0000086E295E05DD32FEF24
S113054081EE94E0215080409040E1F700C000002B
S11305507DC3089575D386E295E04ED32FEF81EEE7
S113056094E0215080409040E1F700C0000086E90B
S113057094E042D32FEF81EE94E0215080409040EC
S1130580E1F700C0000086E194E036D32FEF81EE5E
S113059094E0215080409040E1F700C0000056C331
S11305A008958091F70108958093F701089580914B
S11305B0F80108958093F80108958091F901089550
S11305C08093F90108958091FA0108958093FA01C6
S11305D0089550D3DDC408958F929F92AF92BF9235
S11305E0CF92DF92EF92FF920F931F93CF93DF93FB
S11305F0CDB7DEB7A8970FB6F894DEBF0FBECDBF58
S113060080910E0190910F018217930771F4ADEC64
S1130610BCEC1FD696958795969587959695879564
S113062090930F0180930E016FC06901E42EF62EA2
S1130630CADF813081F028F08230B9F08330F9F0DC
S113064027C087E0EBE1F1E0DE01119601900D9205
S11306508A95E1F71DC087E0E2E2F1E0DE01119640
S113066001900D928A95E1F713C087E0E9EBF1E080
S1130670DE01119601900D928A95E1F709C087E099
S1130680E8ECF1E0DE01119601900D928A95E1F714
S11306908E01055F1F4F89E0E9E2F1E0D801019086
S11306A00D928A95E1F7A80164E080E0BED4AE2CF7
S11306B0B12C8F2C912CCE0101969F938F931F9276
S11306C0EF921F92FF9282E391E09F938F931F9387
S11306D00F9329D6A80161E081E0A7D424E6289DE0
S11306E0C001299D900D11248A0D9B1DF2D30FB6D4
S11306F0F894DEBF0FBECDBF94EFC91691E0D906C2
S113070010F4F2D301C0F4D3A8960FB6F894DEBF68
S11307100FBECDBFDF91CF911F910F91FF90EF904E
S1130720DF90CF90BF90AF909F908F9008951092DC
S1130730FC011092FD011092FE011092FF0143DFB3
S11307408093FB0108950F931F932BDF813009F0F1
S1130750D9C08091FB01813091F138F0823009F4E5
S11307605DC0833009F488C0B4C08CD48091FC018E
S11307709091FD01A091FE01B091FF014091D00143
S11307805091D1016091D2017091D3018C019D01EE
S1130790041B150B260B370B0A30110521053105F7
S11307A008F497C08093D0019093D101A093D20113
S11307B0B093D30181E08093FB0108DF8AC088E015
S11307C04BD410928900109288008091FC01909182
S11307D0FD01A091FE01B091FF014091D001509123
S11307E0D1016091D2017091D3018C019D01041B50
S11307F0150B260B370B0E3111052105310508F4B5
S113080068C08093D0019093D101A093D201B0939A
S1130810D30182E08093FB01D9DE5BC084E01CD469
S113082010928900109288008091FC019091FD0142
S1130830A091FE01B091FF014091D0015091D101EE
S11308406091D2017091D3018C019D01041B150BA1
S1130850260B370B0E31110521053105D0F180939C
S1130860D0019093D101A093D201B093D30183E03E
S11308708093FB01ABDE2DC082E0EED310928900A1
S1130880109288008091FC019091FD01A091FE01DD
S1130890B091FF014091D0015091D1016091D201FA
S11308A07091D3018C019D01041B150B260B370B92
S11308B00E3111052105310560F08093D00190932C
S11308C0D101A093D201B093D3011092FB0180E037
S11308D07DDE8FE99FE00197F1F700C00000809171
S11308E0FC019091FD01A091FE01B091FF010196E0
S11308F0A11DB11D8093FC019093FD01A093FE0105
S1130900B093FF011F910F9108954BDE81113AC0FE
S11309105ADE813041F028F08230A9F0833019F199
S11309200895B0C3089588E097D32FEF81EE94E043
S1130930215080409040E1F700C0000010928900EF
S113094010928800089584E087D32FEF81EE94E01D
S1130950215080409040E1F700C0000010928900CF
S113096010928800089582E077D32FEF81EE94E00F
S1130970215080409040E1F700C0000010928900AF
S11309801092880008951092D8011092D701109205
S1130990D6011092D5011092D401089508DE813059
S11309A089F028F08230D1F0833021F1089510923B
S11309B0D8011092D7011092D6011092D50110924D
S11309C0D40108951092D8011092D7018AE080933F
S11309D0D6011092D5011092D40108951092D80135
S11309E01092D7011092D60185E08093D501109220
S11309F0D40108951092D8011092D7011092D60113
S1130A0087E08093D5011092D40108958091D70195
S1130A109091D801009731F001979093D801809379
S1130A20D701089587EE93E09093D8018093D7017E
S1130A308091D601882321F081508093D6010895B6
S1130A408BE38093D6018091D501882321F08150D6
S1130A508093D50108958BE38093D5018091D401CF
S1130A60882321F081508093D40108951092D801F5
S1130A701092D7011092D6011092D5011092D40190
S1130A8080E09EDD80E090DD80E0A0DD80E098DD08
S1130A9061CD08952091D7013091D8014091D601BC
S1130AA050E06091D50170E08091D40190E094CD44
S1130AB00895CF93DF9384D3882309F464C05BD370
S1130AC082D3EC0161E471E0F5D3892B61F480E019
S1130AD06BDD80E07BDD80E073DD80E06BDDBEDC20
S1130AE08EE491E0F0D36EE571E0CE01E3D3892B7F
S1130AF031F481E059DD7FDC88E691E0E4D365E7F9
S1130B0071E0CE01D7D3892B09F03DC04ADD88239B
S1130B1021F082E891E0D7D336C08091D9018130A9
S1130B2091F028F08230D9F0833029F12CC0C9DC4F
S1130B3080E04CDD8091D9018F5F8093D90188E9F1
S1130B4091E0C1D320C0BDDC81E040DD8091D901BA
S1130B508F5F8093D90184EA91E0B5D314C0B1DCEE
S1130B6082E034DD8091D9018F5F8093D90181EBDC
S1130B7091E0A9D308C0A5DC83E028DD1092D90157
S1130B8080EC91E0A0D3DF91CF910895FC01CB01DB
S1130B907183608353834283248331E03583422FFE
S1130BA061E082C20895CF93DF93EC016C818A8166
S1130BB09B81B2D281110CC09D81913049F48FE3A5
S1130BC09CE90197F1F700C000001D8280E011C08C
S1130BD0882361F08D8181110BC08FE39CE901971B
S1130BE0F1F700C0000081E08D8303C082E001C002
S1130BF082E0DF91CF9108958436910528F08938F9
S1130C0023E1920720F405C084E690E002C088E85E
S1130C1093E19C0140E050E060E970ED83E090E0F6
S1130C20FCD221503109E0E8F0E031832083808157
S1130C30918196958795909385008093840008957B
S1130C40EBE8F0E08081806280830895EBE8F0E0D7
S1130C5080818F7C80830895EAE8F0E0808183605E
S1130C608083ABE8B0E08C9182608C938081886152
S1130C708083089582B1826E82B98FEF8093610080
S1130C8008950F931F93CF93DF93CDB7DEB72B97C0
S1130C900FB6F894DEBF0FBECDBF8C018BE0E0E150
S1130CA0F1E0DE01119601900D928A95E1F78091B1
S1130CB0DA0190E0019665E070E09CD28093DA015D
S1130CC0823009F480C030F4882359F0813009F46B
S1130CD041C0F4C0833009F4ADC0843009F4D8C0F5
S1130CE0EDC083B1826E83B9980136952795369508
S1130CF0279536952795A5ECB0E2ABD2AC01529579
S1130D0042954F7045275F7045279A01ADECBCECC6
S1130D10A0D29695879596958795969587959C01EB
S1130D20220F331F880F991F880F991F880F991F4F
S1130D30820F931F9A01281B390BE1E0F0E0EC0FBE
S1130D40FD1FE20FF31F80818093620083B18D7FCA
S1130D5083B9B4C083B1826E83B99801369527955F
S1130D6036952795ABE7B4E174D2AC015695479517
S1130D709A01ADECBCEC6DD29695879596958795C6
S1130D80969587959C01220F331F880F991F880F12
S1130D90991F880F991F820F931F9A01281B390BE3
S1130DA0E1E0F0E0EC0FFD1FE20FF31F8081809380
S1130DB0620083B18F7D83B98FE99FE00197F1F7DA
S1130DC000C000007BC083B1826E83B99801ADEC92
S1130DD0BCEC3FD2AC015695479556954795569530
S1130DE047959A0136D296958795969587959695C7
S1130DF087959C01220F331F880F991F880F991F15
S1130E00880F991F820F931F9A01281B390BE1E069
S1130E10F0E0EC0FFD1FE20FF31F8081809362006E
S1130E2083B18F7B83B98FE99FE00197F1F700C00D
S1130E30000044C083B1826E83B99801ADECBCEC70
S1130E4008D29695879596958795969587959C0152
S1130E50220F331F880F991F880F991F880F991F1E
S1130E60820F931F9801281B390BE1E0F0E0EC0F8F
S1130E70FD1FE20FF31F80818093620083B18F779F
S1130E8083B98FE99FE00197F1F700C0000016C015
S1130E9083B1826E83B98091DD01882321F08B8533
S1130EA08093620002C01092620083B18F7D83B987
S1130EB08FE99FE00197F1F700C000002B960FB671
S1130EC0F894DEBF0FBECDBFDF91CF911F910F917C
S1130ED008959093DC018093DB0108958091DB01F8
S1130EE09091DC01CECE089581E08093DD010895D8
S1130EF01092DD01089544E060E087E390E0D4D0EF
S1130F0046E060E087E390E0CFD047E060E087E32D
S1130F1090E0CAD060E084E390E0BDC0089540E072
S1130F2064E088E390E0DEC0089541E064E088E393
S1130F3090E0D8C0089540E066E088E390E0D2C035
S1130F40089541E067E088E390E0CCD08FE99FE02A
S1130F500197F1F700C00000089540E067E088E3DE
S1130F6090E0C0D08FE99FE00197F1F700C0000046
S1130F700895682F85E390E0B2C00895CF93C82FF9
S1130F80CEDFD9DFDEDF8C2FF4DFE7DFCF910895EA
S1130F90B2DF8FE59AEE0197F1F700C0000088E315
S1130FA0EDDF8FE19EE40197F1F700C0000088E3D4
S1130FB0E5DF8FE99FE00197F1F700C0000088E3C7
S1130FC0DDDF88E3DBDF88E0D9DF81E0D7DF86E09F
S1130FD0D5DF8CE0D3CF0895CF93C82FA6DFABDF46
S1130FE0B0DF8C2FC6DFB9DFCF9108950F931F9325
S1130FF0CF93DF938C01C0E0D0E002C0EDDF2196F7
S1131000F801EC0FFD1F80818111F8CFDF91CF91A2
S11310101F910F9108956F70817090E4899F600D06
S11310201124862F8058AACF0895CF93DF93EA0125
S1131030F2DFCE01DBDFDF91CF910895EAE8F0E043
S1131040808183608083ABE8B0E08C9182608C9374
S11310508081886180830895682FE0E8F0E089EF5B
S113106090E0918380838081918170E0AFD0709310
S11310708700609386000895EBE8F0E08081806843
S113108080830895EBE8F0E080818F738083089576
S113109095D8ADD8FECF611104C02FEFFC01208399
S11310A00895FC011082089561110CC0FC01508167
S11310B021E030E002C0220F331F4A95E2F7252BCE
S11310C020830895FC01508121E030E002C0220F0A
S11310D0331F4A95E2F72095252320830895FC01C8
S11310E060830895FC01413059F4208181E090E04F
S11310F002C0880F991F6A95E2F7822B80830895B6
S1131100908121E030E002C0220F331F6A95E2F79C
S11311102095292320830895FC01808190E002C05A
S1131120959587956A95E2F78170089583B78560F0
S113113083BF87B7816087BF82E882BF089585B582
S1131140836085BD87B7806887BF85B5886085BDA6
S113115089EF83BD08958AB188618AB98BB18260B1
S11311608BB98FEC89B98AB180688AB908955D9B7F
S1131170FECF8CB9089510926402089581E08093A3
S1131180640208959CB19A3081F4E091DE01AE2F9F
S1131190B0E0A050BE4F9C93EF5FF0E0E050FE4FF4
S11311A010821092DE01EACF08958091DE01E82FCB
S11311B0F0E0E050FE4F90838F5F8093DE0108954E
S11311C080916402089580E092E00895AA1BBB1BFD
S11311D051E107C0AA1FBB1FA617B70710F0A61B33
S11311E0B70B881F991F5A95A9F780959095BC0154
S11311F0CD01089597FB072E16F4009406D077FDD1
S113120008D0E4DF07FC05D03EF4909581959F4F0C
S11312100895709561957F4F0895052E97FB16F4F8
S113122000940FD057FD05D023D007FC02D046F41C
S113123008C050954095309521953F4F4F4F5F4FD3
S1131240089590958095709561957F4F8F4F9F4F2E
S11312500895A29FB001B39FC001A39F700D811D8B
S11312601124911DB29F700D811D1124911D0895AB
S1131270A1E21A2EAA1BBB1BFD010DC0AA1FBB1F96
S1131280EE1FFF1FA217B307E407F50720F0A21B08
S1131290B30BE40BF50B661F771F881F991F1A9475
S11312A069F760957095809590959B01AC01BD019F
S11312B0CF010895FB01DC018D910190801901108B
S11312C0D9F3990B08950F931F93CF93DF93E09174
S11312D06702F0916802238121FF1BC08C01D0E0DA
S11312E0C0E0F80181918F016091670270916802FA
S11312F0DB011896ED91FC911997882331F009953B
S1131300892B79F3DFEFCFEFECCF8AE00995892BB6
S113131019F08FEF9FEF02C08D2F9C2FDF91CF919B
S11313201F910F9108950F931F93CF93DF93CDB720
S1131330DEB72E970FB6F894DEBF0FBECDBF0D8972
S11313401E8986E08C831A8309838FEF9FE79E832F
S11313508D83AE01475E5F4F6F89788DCE01019614
S113136010D0EF81F885E00FF11F10822E960FB692
S1131370F894DEBF0FBECDBFDF91CF911F910F91C7
S113138008952F923F924F925F926F927F928F9225
S11313909F92AF92BF92CF92DF92EF92FF920F9300
S11313A01F93CF93DF93CDB7DEB72B970FB6F89487
S11313B0DEBF0FBECDBF6C017B018A01FC01178229
S11313C01682838181FFBFC1CE0101963C01F601E3
S11313D09381F70193FD859193FF81917F01882388
S11313E009F4ADC1853239F493FD859193FF819160
S11313F07F01853221F4B60190E0D6D1E8CF912C5B
S1131400212C312CFFE1F315D8F08B3279F038F42C
S1131410803279F08332A1F4232D20611DC08D32F6
S113142061F0803369F4232D216016C0832D82601E
S1131430382EE32DE4603E2E2AC0F32DF8601DC043
S113144037FC2DC020ED280F2A3040F08E32B9F43D
S113145036FC75C1232D2064322E19C036FE06C019
S11314608AE0989E200D1124922E11C0EAE02E9E4F
S1131470200D1124222EF32DF0623F2E08C08C364D
S113148021F4832D8068382E02C0883641F4F70198
S113149093FD859193FF81917F018111B3CF982FA3
S11314A09F7D9554933028F40C5F1F4F9FE39983DD
S11314B00DC0833631F0833771F0833509F055C0A0
S11314C020C0F801808189830E5F1F4F8824839494
S11314D0912C530112C02801F2E04F0E511CF80167
S11314E0A080B18036FE03C0692D70E002C06FEFAA
S11314F07FEFC5014ED14C018201F32DFF773F2EC2
S113150015C0280122E0420E511CF801A080B180D0
S113151036FE03C0692D70E002C06FEF7FEFC50196
S11315202DD14C01F32DF0683F2E820133FC19C0FC
S1131530822D90E088169906A0F4B60180E290E02E
S113154033D12A94F5CFF50137FC859137FE81918B
S11315505F01B60190E028D121102A9421E0821A7B
S113156091088114910479F7E1C0843611F0893629
S113157039F5F80137FE07C060817181828193815A
S11315800C5F1F4F08C060817181072E000C880B0F
S1131590990B0E5F1F4FF32DFF763F2E97FF09C067
S11315A090958095709561957F4F8F4F9F4FF06810
S11315B03F2E2AE030E0A30133D1882E861844C0A0
S11315C0853731F4232D2F7EB22E2AE030E025C05A
S11315D0932D997FB92E8F36C1F018F4883579F0A0
S11315E0AEC0803719F0883721F0A9C0E92FE06137
S11315F0BE2EB4FE0DC0FB2DF460BF2E09C034FE18
S11316000AC0292F2660B22E06C028E030E005C0AB
S113161020E130E002C020E132E0F801B7FE07C06B
S113162060817181828193810C5F1F4F06C060814C
S1131630718180E090E00E5F1F4FA301F1D0882EEE
S11316408618FB2DFF773F2E36FE0DC0232D2E7FEF
S1131650A22E891458F434FE0BC032FC09C0832D29
S11316608E7EA82E05C0B82CA32C03C0B82C01C0B4
S1131670B92CA4FE0FC0FE01E80DF11D808180335A
S113168021F49A2D997EA92E09C0A2FE06C0B39416
S1131690B39404C08A2D867809F0B394A3FC10C0D7
S11316A0A0FE06C0B21480F4280C922C9B180DC026
S11316B0B21458F4B60180E290E076D0B394F8CF37
S11316C0B21418F42B1802C0982C212CA4FE0FC0BD
S11316D0B60180E390E068D0A2FE16C0A1FC03C06E
S11316E088E790E002C088E590E0B6010CC08A2D3E
S11316F0867851F0A1FE02C08BE201C080E2A7FC13
S11317008DE2B60190E050D0891430F4B60180E344
S113171090E04AD09A94F8CF8A94F301E80DF11D31
S11317208081B60190E040D08110F6CF222009F4E8
S11317304ECEB60180E290E037D02A94F7CFF6017E
S11317408681978102C08FEF9FEF2B960FB6F89496
S1131750DEBF0FBECDBFDF91CF911F910F91FF90E0
S1131760EF90DF90CF90BF90AF909F908F907F903D
S11317706F905F904F903F902F900895FC010590DB
S1131780615070400110D8F7809590958E0F9F1F7F
S11317900895FC016150704001900110D8F78095C4
S11317A090958E0F9F1F08950F931F93CF93DF93F0
S11317B0FB01238121FD03C08FEF9FEF2CC022FF8B
S11317C016C046815781248135814217530744F45A
S11317D0A081B1819D012F5F3F4F318320838C9382
S11317E0268137812F5F3F4F3783268314C08B01B7
S11317F0EC01FB010084F185E02D0995892BE1F6CC
S1131800D80116968D919C911797019617969C93E3
S11318108E931697CE01DF91CF911F910F9108956A
S1131820FA01AA27283051F1203181F1E8946F930D
S11318306E7F6E5F7F4F8F4F9F4FAF4FB1E03ED0B3
S1131840B4E03CD0670F781F891F9A1FA11D680F51
S1131850791F8A1F911DA11D6A0F711D811D911D84
S1131860A11D20D009F468943F912AE0269F1124F9
S11318703019305D3193DEF6CF010895462F47705D
S1131880405D4193B3E00FD0C9F7F6CF462F4F70B8
S1131890405D4A3318F0495D31FD4052419302D016
S11318A0A9F7EACFB4E0A6959795879577956795BC
S11318B0BA95C9F700976105710508959B01AC01BC
S11318C00A2E06945795479537952795BA95C9F7E3
S11318D0620F731F841F951FA01D0895F894FFCFF6
S11318E00000000200000000B70800000000FF0034
S11318F03F065B4F666D7D277F6780204F464620FD
S11319002000205745414B20004D494E4920464177
S11319104E00253032643A25303264202620257367
S11319200046616E5F6D616E6E75616C0A005354A2
S1131930415445203A204D414E4E55414C0046619C
S11319406E5F4175746F0A005354415445203A2028
S11319504155544F0057696E645F6368616E6765F3
S11319600A00446F20697420696E204D414E4E5523
S1131970414C206D6F6465005354415445203A2016
S11319804F4646005354415445203A205745414B55
S1131990005354415445203A204E4F524D414C007F
S11319A05354415445203A205354524F4E4700005B
S9030000FC
